{
  "address": "0xF71Ea2f0A4ffC8f98Dee72D1C19401430EB3d746",
  "abi": [
    {
      "inputs": [],
      "stateMutability": "nonpayable",
      "type": "constructor"
    },
    {
      "inputs": [],
      "name": "ERC721EnumerableForbiddenBatchMint",
      "type": "error"
    },
    {
      "inputs": [
        {
          "internalType": "address",
          "name": "sender",
          "type": "address"
        },
        {
          "internalType": "uint256",
          "name": "tokenId",
          "type": "uint256"
        },
        {
          "internalType": "address",
          "name": "owner",
          "type": "address"
        }
      ],
      "name": "ERC721IncorrectOwner",
      "type": "error"
    },
    {
      "inputs": [
        {
          "internalType": "address",
          "name": "operator",
          "type": "address"
        },
        {
          "internalType": "uint256",
          "name": "tokenId",
          "type": "uint256"
        }
      ],
      "name": "ERC721InsufficientApproval",
      "type": "error"
    },
    {
      "inputs": [
        {
          "internalType": "address",
          "name": "approver",
          "type": "address"
        }
      ],
      "name": "ERC721InvalidApprover",
      "type": "error"
    },
    {
      "inputs": [
        {
          "internalType": "address",
          "name": "operator",
          "type": "address"
        }
      ],
      "name": "ERC721InvalidOperator",
      "type": "error"
    },
    {
      "inputs": [
        {
          "internalType": "address",
          "name": "owner",
          "type": "address"
        }
      ],
      "name": "ERC721InvalidOwner",
      "type": "error"
    },
    {
      "inputs": [
        {
          "internalType": "address",
          "name": "receiver",
          "type": "address"
        }
      ],
      "name": "ERC721InvalidReceiver",
      "type": "error"
    },
    {
      "inputs": [
        {
          "internalType": "address",
          "name": "sender",
          "type": "address"
        }
      ],
      "name": "ERC721InvalidSender",
      "type": "error"
    },
    {
      "inputs": [
        {
          "internalType": "uint256",
          "name": "tokenId",
          "type": "uint256"
        }
      ],
      "name": "ERC721NonexistentToken",
      "type": "error"
    },
    {
      "inputs": [
        {
          "internalType": "address",
          "name": "owner",
          "type": "address"
        },
        {
          "internalType": "uint256",
          "name": "index",
          "type": "uint256"
        }
      ],
      "name": "ERC721OutOfBoundsIndex",
      "type": "error"
    },
    {
      "anonymous": false,
      "inputs": [
        {
          "indexed": true,
          "internalType": "address",
          "name": "owner",
          "type": "address"
        },
        {
          "indexed": true,
          "internalType": "address",
          "name": "approved",
          "type": "address"
        },
        {
          "indexed": true,
          "internalType": "uint256",
          "name": "tokenId",
          "type": "uint256"
        }
      ],
      "name": "Approval",
      "type": "event"
    },
    {
      "anonymous": false,
      "inputs": [
        {
          "indexed": true,
          "internalType": "address",
          "name": "owner",
          "type": "address"
        },
        {
          "indexed": true,
          "internalType": "address",
          "name": "operator",
          "type": "address"
        },
        {
          "indexed": false,
          "internalType": "bool",
          "name": "approved",
          "type": "bool"
        }
      ],
      "name": "ApprovalForAll",
      "type": "event"
    },
    {
      "anonymous": false,
      "inputs": [
        {
          "indexed": true,
          "internalType": "address",
          "name": "from",
          "type": "address"
        },
        {
          "indexed": true,
          "internalType": "address",
          "name": "to",
          "type": "address"
        },
        {
          "indexed": true,
          "internalType": "uint256",
          "name": "tokenId",
          "type": "uint256"
        }
      ],
      "name": "Transfer",
      "type": "event"
    },
    {
      "inputs": [
        {
          "internalType": "address",
          "name": "to",
          "type": "address"
        },
        {
          "internalType": "uint256",
          "name": "tokenId",
          "type": "uint256"
        }
      ],
      "name": "approve",
      "outputs": [],
      "stateMutability": "nonpayable",
      "type": "function"
    },
    {
      "inputs": [
        {
          "internalType": "address",
          "name": "owner",
          "type": "address"
        }
      ],
      "name": "balanceOf",
      "outputs": [
        {
          "internalType": "uint256",
          "name": "",
          "type": "uint256"
        }
      ],
      "stateMutability": "view",
      "type": "function"
    },
    {
      "inputs": [],
      "name": "curve",
      "outputs": [
        {
          "internalType": "uint256",
          "name": "",
          "type": "uint256"
        }
      ],
      "stateMutability": "view",
      "type": "function"
    },
    {
      "inputs": [
        {
          "internalType": "uint256",
          "name": "tokenId",
          "type": "uint256"
        }
      ],
      "name": "getApproved",
      "outputs": [
        {
          "internalType": "address",
          "name": "",
          "type": "address"
        }
      ],
      "stateMutability": "view",
      "type": "function"
    },
    {
      "inputs": [
        {
          "internalType": "address",
          "name": "owner",
          "type": "address"
        },
        {
          "internalType": "address",
          "name": "operator",
          "type": "address"
        }
      ],
      "name": "isApprovedForAll",
      "outputs": [
        {
          "internalType": "bool",
          "name": "",
          "type": "bool"
        }
      ],
      "stateMutability": "view",
      "type": "function"
    },
    {
      "inputs": [],
      "name": "limit",
      "outputs": [
        {
          "internalType": "uint256",
          "name": "",
          "type": "uint256"
        }
      ],
      "stateMutability": "view",
      "type": "function"
    },
    {
      "inputs": [],
      "name": "mintItem",
      "outputs": [
        {
          "internalType": "uint256",
          "name": "",
          "type": "uint256"
        }
      ],
      "stateMutability": "payable",
      "type": "function"
    },
    {
      "inputs": [],
      "name": "name",
      "outputs": [
        {
          "internalType": "string",
          "name": "",
          "type": "string"
        }
      ],
      "stateMutability": "view",
      "type": "function"
    },
    {
      "inputs": [
        {
          "internalType": "uint256",
          "name": "tokenId",
          "type": "uint256"
        }
      ],
      "name": "ownerOf",
      "outputs": [
        {
          "internalType": "address",
          "name": "",
          "type": "address"
        }
      ],
      "stateMutability": "view",
      "type": "function"
    },
    {
      "inputs": [],
      "name": "price",
      "outputs": [
        {
          "internalType": "uint256",
          "name": "",
          "type": "uint256"
        }
      ],
      "stateMutability": "view",
      "type": "function"
    },
    {
      "inputs": [],
      "name": "recipient",
      "outputs": [
        {
          "internalType": "address payable",
          "name": "",
          "type": "address"
        }
      ],
      "stateMutability": "view",
      "type": "function"
    },
    {
      "inputs": [
        {
          "internalType": "uint256",
          "name": "id",
          "type": "uint256"
        }
      ],
      "name": "renderTokenById",
      "outputs": [
        {
          "internalType": "string",
          "name": "",
          "type": "string"
        }
      ],
      "stateMutability": "view",
      "type": "function"
    },
    {
      "inputs": [
        {
          "internalType": "address",
          "name": "from",
          "type": "address"
        },
        {
          "internalType": "address",
          "name": "to",
          "type": "address"
        },
        {
          "internalType": "uint256",
          "name": "tokenId",
          "type": "uint256"
        }
      ],
      "name": "safeTransferFrom",
      "outputs": [],
      "stateMutability": "nonpayable",
      "type": "function"
    },
    {
      "inputs": [
        {
          "internalType": "address",
          "name": "from",
          "type": "address"
        },
        {
          "internalType": "address",
          "name": "to",
          "type": "address"
        },
        {
          "internalType": "uint256",
          "name": "tokenId",
          "type": "uint256"
        },
        {
          "internalType": "bytes",
          "name": "data",
          "type": "bytes"
        }
      ],
      "name": "safeTransferFrom",
      "outputs": [],
      "stateMutability": "nonpayable",
      "type": "function"
    },
    {
      "inputs": [
        {
          "internalType": "address",
          "name": "operator",
          "type": "address"
        },
        {
          "internalType": "bool",
          "name": "approved",
          "type": "bool"
        }
      ],
      "name": "setApprovalForAll",
      "outputs": [],
      "stateMutability": "nonpayable",
      "type": "function"
    },
    {
      "inputs": [
        {
          "internalType": "bytes4",
          "name": "interfaceId",
          "type": "bytes4"
        }
      ],
      "name": "supportsInterface",
      "outputs": [
        {
          "internalType": "bool",
          "name": "",
          "type": "bool"
        }
      ],
      "stateMutability": "view",
      "type": "function"
    },
    {
      "inputs": [],
      "name": "symbol",
      "outputs": [
        {
          "internalType": "string",
          "name": "",
          "type": "string"
        }
      ],
      "stateMutability": "view",
      "type": "function"
    },
    {
      "inputs": [
        {
          "internalType": "uint256",
          "name": "index",
          "type": "uint256"
        }
      ],
      "name": "tokenByIndex",
      "outputs": [
        {
          "internalType": "uint256",
          "name": "",
          "type": "uint256"
        }
      ],
      "stateMutability": "view",
      "type": "function"
    },
    {
      "inputs": [
        {
          "internalType": "address",
          "name": "owner",
          "type": "address"
        },
        {
          "internalType": "uint256",
          "name": "index",
          "type": "uint256"
        }
      ],
      "name": "tokenOfOwnerByIndex",
      "outputs": [
        {
          "internalType": "uint256",
          "name": "",
          "type": "uint256"
        }
      ],
      "stateMutability": "view",
      "type": "function"
    },
    {
      "inputs": [
        {
          "internalType": "uint256",
          "name": "id",
          "type": "uint256"
        }
      ],
      "name": "tokenURI",
      "outputs": [
        {
          "internalType": "string",
          "name": "",
          "type": "string"
        }
      ],
      "stateMutability": "view",
      "type": "function"
    },
    {
      "inputs": [],
      "name": "totalSupply",
      "outputs": [
        {
          "internalType": "uint256",
          "name": "",
          "type": "uint256"
        }
      ],
      "stateMutability": "view",
      "type": "function"
    },
    {
      "inputs": [
        {
          "internalType": "uint256",
          "name": "",
          "type": "uint256"
        }
      ],
      "name": "traits",
      "outputs": [
        {
          "internalType": "uint8",
          "name": "palette",
          "type": "uint8"
        },
        {
          "internalType": "uint8",
          "name": "complexity",
          "type": "uint8"
        },
        {
          "internalType": "enum YourCollectible.Feature",
          "name": "feature",
          "type": "uint8"
        }
      ],
      "stateMutability": "view",
      "type": "function"
    },
    {
      "inputs": [
        {
          "internalType": "address",
          "name": "from",
          "type": "address"
        },
        {
          "internalType": "address",
          "name": "to",
          "type": "address"
        },
        {
          "internalType": "uint256",
          "name": "tokenId",
          "type": "uint256"
        }
      ],
      "name": "transferFrom",
      "outputs": [],
      "stateMutability": "nonpayable",
      "type": "function"
    }
  ],
  "transactionHash": "0x1b292b2935295fc4df3c4890efa3b19b98aa1868b81ebb0bbf14615621dd2284",
  "args": [],
  "numDeployments": 1,
  "solcInputHash": "759fe5c0023992c41ad38f67652d82e6",
  "bytecode": "0x6080604052346200002d5762000014620012b6565b6200001e62000033565b6152ac6200173482396152ac90f35b62000039565b60405190565b600080fd5b601f801991011690565b634e487b7160e01b600052604160045260246000fd5b906200006a906200003e565b810190811060018060401b038211176200008357604052565b62000048565b90620000a06200009862000033565b92836200005e565b565b60018060401b038111620000c157620000bd6020916200003e565b0190565b62000048565b90620000dd620000d783620000a2565b62000089565b918252565b60007f47656e6572617469766554696c696e674e465400000000000000000000000000910152565b620001166013620000c7565b906200012560208301620000e2565b565b620001316200010a565b90565b60007f47544e4654000000000000000000000000000000000000000000000000000000910152565b620001686005620000c7565b90620001776020830162000134565b565b620001836200015c565b90565b60001b90565b906200019b6000199162000186565b9181191691161790565b90565b90565b90565b620001c7620001c1620001cd92620001a5565b620001ab565b620001a8565b90565b90565b90620001ed620001e7620001f592620001ae565b620001d0565b82546200018c565b9055565b60018060401b0381116200020d5760200290565b62000048565b620002226200022891620001f9565b62000089565b90565b60007f2331613161316100000000000000000000000000000000000000000000000000910152565b6200025f6007620000c7565b906200026e602083016200022b565b565b6200027a62000253565b90565b52565b60007f2332643264326400000000000000000000000000000000000000000000000000910152565b620002b46007620000c7565b90620002c36020830162000280565b565b620002cf620002a8565b90565b60007f2332323333336200000000000000000000000000000000000000000000000000910152565b620003066007620000c7565b906200031560208301620002d2565b565b62000321620002fa565b90565b634e487b7160e01b600052600060045260246000fd5b90565b5490565b600190818003010490565b600052602060002090565b634e487b7160e01b600052602260045260246000fd5b906001600283049216801562000390575b60208310146200038a57565b62000357565b91607f16916200037e565b600052602060002090565b1c90565b90620003c09060001990602003600802620003a6565b8154169055565b1b90565b91906008620003eb910291620003e460001984620003c7565b92620003c7565b9181191691161790565b6200040e620004086200041492620001a8565b620001ab565b620001a8565b90565b9190620004326200042c6200043b93620003f5565b620001d0565b908354620003cb565b9055565b600090565b6200045a91620004536200043f565b9162000417565b565b5b81811062000469575050565b8062000479600060019362000444565b016200045d565b90620004939060001990600802620003a6565b191690565b81620004a49162000480565b906002021790565b90600091620004c8620004bf826200039b565b92835462000498565b905555565b601f602091010490565b919290602082106000146200053e57601f84116001146200050557620004ff92935062000498565b90555b5b565b509062000532620005389360016200052862000521856200039b565b92620004cd565b820191016200045c565b620004ac565b62000502565b506200057e8293620005526001946200039b565b620005766200056185620004cd565b820192601f8616806200058a575b50620004cd565b01906200045c565b60020217905562000503565b6200059890888603620003aa565b386200056f565b9290916801000000000000000082116200060a57602011600014620005fa5760208110600014620005db57620005d59162000498565b90555b5b565b60019160ff1916620005ed846200039b565b55600202019055620005d8565b60019150600202019055620005d9565b62000048565b9081546200061e816200036d565b908183116200064c575b81831062000637575b50505050565b6200064293620004d7565b3880808062000631565b6200065a838383876200059f565b62000628565b60006200066d9162000610565b565b906000036200068557620006839062000660565b565b62000324565b5b81811062000698575050565b80620006a860006001936200066f565b016200068c565b9091828110620006bf575b505050565b620006e4620006dd620006d6620006f09562000341565b9262000341565b926200034c565b9182019101906200068b565b388080620006ba565b906801000000000000000081116200072757816200071b62000725936200033d565b90828155620006af565b565b62000048565b50600390565b5190565b5190565b9190601f81116200074c575b505050565b6200075b62000786936200039b565b9060206200076984620004cd565b830193106200078f575b6200077e90620004cd565b01906200045c565b38808062000747565b91506200077e8192905062000773565b90620007ab8162000737565b9060018060401b0382116200087e57620007d282620007cb85546200036d565b856200073b565b602090601f83116001146200080c57918091620007fa93600092620007ff575b505062000498565b90555b565b90915001513880620007f2565b601f198316916200081d856200039b565b9260005b818110620008655750916002939185600196941062000848575b50505002019055620007fd565b6200085a910151601f84169062000480565b90553880806200083b565b9193602060018192878701518155019501920162000821565b62000048565b9062000890916200079f565b565b620008bf620008b8620008a5846200072d565b93620008b28585620006f9565b6200033a565b916200034c565b6000915b838310620008d15750505050565b6001602082620008ed620008e6849562000733565b8662000884565b01920192019190620008c3565b90620009069162000892565b565b60007f4f6273696469616e000000000000000000000000000000000000000000000000910152565b6200093c6008620000c7565b906200094b6020830162000908565b565b6200095762000930565b90565b60007f43686172636f616c000000000000000000000000000000000000000000000000910152565b6200098e6008620000c7565b906200099d602083016200095a565b565b620009a962000982565b90565b60007f4465657020576174657200000000000000000000000000000000000000000000910152565b620009e0600a620000c7565b90620009ef60208301620009ac565b565b620009fb620009d4565b90565b60018060401b03811162000a125760200290565b62000048565b62000a2762000a2d91620009fe565b62000089565b90565b60018060401b03811162000a445760200290565b62000048565b62000a5962000a5f9162000a30565b62000089565b90565b60007f2366666265306200000000000000000000000000000000000000000000000000910152565b62000a966007620000c7565b9062000aa56020830162000a62565b565b62000ab162000a8a565b90565b60007f2366663030366500000000000000000000000000000000000000000000000000910152565b62000ae86007620000c7565b9062000af76020830162000ab4565b565b62000b0362000adc565b90565b60007f2338333338656300000000000000000000000000000000000000000000000000910152565b62000b3a6007620000c7565b9062000b496020830162000b06565b565b62000b5562000b2e565b90565b60007f2333613836666600000000000000000000000000000000000000000000000000910152565b62000b8c6007620000c7565b9062000b9b6020830162000b58565b565b62000ba762000b80565b90565b52565b60007f2332363436353300000000000000000000000000000000000000000000000000910152565b62000be16007620000c7565b9062000bf06020830162000bad565b565b62000bfc62000bd5565b90565b60007f2332613964386600000000000000000000000000000000000000000000000000910152565b62000c336007620000c7565b9062000c426020830162000bff565b565b62000c4e62000c27565b90565b60007f2365396334366100000000000000000000000000000000000000000000000000910152565b62000c856007620000c7565b9062000c946020830162000c51565b565b62000ca062000c79565b90565b60007f2346464646464600000000000000000000000000000000000000000000000000910152565b62000cd76007620000c7565b9062000ce66020830162000ca3565b565b62000cf262000ccb565b90565b60007f2330303030303000000000000000000000000000000000000000000000000000910152565b62000d296007620000c7565b9062000d386020830162000cf5565b565b62000d4462000d1d565b90565b90565b5490565b600190818003010490565b600052602060002090565b600062000d7191620006f9565b565b9060000362000d895762000d879062000d64565b565b62000324565b5b81811062000d9c575050565b8062000dac600060019362000d73565b0162000d90565b909182811062000dc3575b505050565b62000de862000de162000dda62000df49562000d4e565b9262000d4e565b9262000d59565b91820191019062000d8f565b38808062000dbe565b9068010000000000000000811162000e2b578162000e1f62000e299362000d4a565b9082815562000db3565b565b62000048565b50600490565b5190565b90565b50600490565b62000e7162000e6a62000e578462000e3e565b9362000e648585620006f9565b62000e3b565b916200034c565b6000915b83831062000e835750505050565b600160208262000e9f62000e98849562000733565b8662000884565b0192019201919062000e75565b9062000eb89162000e44565b565b62000ee762000ee062000ecd8462000e31565b9362000eda858562000dfd565b62000d47565b9162000d59565b6000915b83831062000ef95750505050565b600160208262000f1562000f0e849562000e37565b8662000eac565b0192019201919062000eeb565b9062000f2e9162000eba565b565b60007f56696272616e7400000000000000000000000000000000000000000000000000910152565b62000f646007620000c7565b9062000f736020830162000f30565b565b62000f7f62000f58565b90565b60007f466f726573740000000000000000000000000000000000000000000000000000910152565b62000fb66006620000c7565b9062000fc56020830162000f82565b565b62000fd162000faa565b90565b60007f53796e746877617665204772616469656e740000000000000000000000000000910152565b620010086012620000c7565b90620010176020830162000fd4565b565b6200102362000ffc565b90565b60007f59696e20262059616e6700000000000000000000000000000000000000000000910152565b6200105a600a620000c7565b90620010696020830162001026565b565b620010756200104e565b90565b60007f426f6c6400000000000000000000000000000000000000000000000000000000910152565b620010ac6004620000c7565b90620010bb6020830162001078565b565b620010c7620010a0565b90565b60007f44657461696c6564000000000000000000000000000000000000000000000000910152565b620010fe6008620000c7565b906200110d60208301620010ca565b565b62001119620010f2565b90565b60007f48797065722d44657461696c6564000000000000000000000000000000000000910152565b62001150600e620000c7565b906200115f602083016200111c565b565b6200116b62001144565b90565b60007f496e66696e6974652044657461696c0000000000000000000000000000000000910152565b620011a2600f620000c7565b90620011b1602083016200116e565b565b620011bd62001196565b90565b60007f506c61696e000000000000000000000000000000000000000000000000000000910152565b620011f46005620000c7565b906200120360208301620011c0565b565b6200120f620011e8565b90565b60007f4772616469656e74000000000000000000000000000000000000000000000000910152565b620012466008620000c7565b90620012556020830162001212565b565b620012616200123a565b90565b60007f5368696d6d657200000000000000000000000000000000000000000000000000910152565b620012986007620000c7565b90620012a76020830162001264565b565b620012b36200128c565b90565b620012d5620012c462000127565b620012ce62000179565b90620016fb565b620012e966038d7ea4c68000600b620001d3565b62001349620012f9600362000213565b620013116200130762000270565b600083016200027d565b620013296200131f620002c5565b602083016200027d565b620013416200133762000317565b604083016200027d565b600c620008fa565b620013a962001359600362000213565b62001371620013676200094d565b600083016200027d565b620013896200137f6200099f565b602083016200027d565b620013a162001397620009f1565b604083016200027d565b600d620008fa565b620015a9620013b9600462000a18565b62001433620013c9600462000a4a565b620013e1620013d762000aa7565b600083016200027d565b620013f9620013ef62000af9565b602083016200027d565b620014116200140762000b4b565b604083016200027d565b620014296200141f62000b9d565b606083016200027d565b6000830162000baa565b620014ad62001443600462000a4a565b6200145b6200145162000bf2565b600083016200027d565b620014736200146962000c44565b602083016200027d565b6200148b6200148162000c96565b604083016200027d565b620014a36200149962000c44565b606083016200027d565b6020830162000baa565b62001527620014bd600462000a4a565b620014d5620014cb62000af9565b600083016200027d565b620014ed620014e362000b9d565b602083016200027d565b62001505620014fb62000af9565b604083016200027d565b6200151d6200151362000b9d565b606083016200027d565b6040830162000baa565b620015a162001537600462000a4a565b6200154f6200154562000ce8565b600083016200027d565b620015676200155d62000d3a565b602083016200027d565b6200157f6200157562000ce8565b604083016200027d565b620015976200158d62000d3a565b606083016200027d565b6060830162000baa565b600e62000f22565b62001621620015b9600462000a4a565b620015d1620015c762000f75565b600083016200027d565b620015e9620015df62000fc7565b602083016200027d565b62001601620015f762001019565b604083016200027d565b620016196200160f6200106b565b606083016200027d565b600f62000eac565b6200169962001631600462000a4a565b620016496200163f620010bd565b600083016200027d565b62001661620016576200110f565b602083016200027d565b620016796200166f62001161565b604083016200027d565b6200169162001687620011b3565b606083016200027d565b601062000eac565b620016f9620016a9600362000213565b620016c1620016b762001205565b600083016200027d565b620016d9620016cf62001257565b602083016200027d565b620016f1620016e7620012a9565b604083016200027d565b6011620008fa565b565b90620017079162001709565b565b90620017159162001717565b565b90620017296200173192600062000884565b600162000884565b56fe60806040526004361015610013575b610d41565b61001e60003561018d565b806301ffc9a71461018857806306fdde0314610183578063081812fc1461017e578063095ea7b31461017957806318160ddd1461017457806323b872dd1461016f5780632d72225b1461016a5780632f745c591461016557806342842e0e146101605780634f6ccce71461015b5780636352211e1461015657806366d003ac1461015157806370a082311461014c5780637165485d1461014757806395d89b4114610142578063a035b1fe1461013d578063a22cb46514610138578063a2d6c6da14610133578063a4d66daf1461012e578063b88d4fde14610129578063c87b56dd14610124578063e985e9c51461011f5763eb93406b0361000e57610d16565b610ce0565b610c7d565b610c46565b610acb565b610a5e565b610a2a565b6109a3565b610931565b6108fc565b61088f565b61083b565b610778565b610743565b61070f565b6106d9565b6106a1565b6104f3565b610483565b61042c565b61039f565b6102ea565b61021f565b60e01c90565b60405190565b600080fd5b600080fd5b600080fd5b63ffffffff60e01b1690565b6101bd816101a8565b036101c457565b600080fd5b905035906101d6826101b4565b565b906020828203126101f2576101ef916000016101c9565b90565b61019e565b151590565b610205906101f7565b9052565b919061021d906000602085019401906101fc565b565b3461024f5761024b61023a6102353660046101d8565b610d4b565b610242610193565b91829182610209565b0390f35b610199565b600091031261025f57565b61019e565b5190565b60209181520190565b60005b838110610285575050906000910152565b806020918301518185015201610274565b601f801991011690565b6102bf6102c86020936102cd936102b681610264565b93848093610268565b95869101610271565b610296565b0190565b6102e791602082019160008184039101526102a0565b90565b3461031a576102fa366004610254565b610316610305610eae565b61030d610193565b918291826102d1565b0390f35b610199565b90565b61032b8161031f565b0361033257565b600080fd5b9050359061034482610322565b565b906020828203126103605761035d91600001610337565b90565b61019e565b60018060a01b031690565b61037990610365565b90565b61038590610370565b9052565b919061039d9060006020850194019061037c565b565b346103cf576103cb6103ba6103b5366004610346565b610ec9565b6103c2610193565b91829182610389565b0390f35b610199565b6103dd81610370565b036103e457565b600080fd5b905035906103f6826103d4565b565b9190604083820312610421578061041561041e92600086016103e9565b93602001610337565b90565b61019e565b60000190565b3461045b5761044561043f3660046103f8565b90610ee8565b61044d610193565b8061045781610426565b0390f35b610199565b6104699061031f565b9052565b919061048190600060208501940190610460565b565b346104b357610493366004610254565b6104af61049e610f07565b6104a6610193565b9182918261046d565b0390f35b610199565b90916060828403126104ee576104eb6104d484600085016103e9565b936104e281602086016103e9565b93604001610337565b90565b61019e565b346105225761050c6105063660046104b8565b91610f7b565b610514610193565b8061051e81610426565b0390f35b610199565b90565b61053e6105396105439261031f565b610527565b61031f565b90565b906105509061052a565b600052602052604060002090565b60001c90565b60ff1690565b61057661057b9161055e565b610564565b90565b610588905461056a565b90565b60081c90565b61059d6105a29161058b565b610564565b90565b6105af9054610591565b90565b60101c90565b60ff1690565b6105ca6105cf916105b2565b6105b8565b90565b6105dc90546105be565b90565b6105ea906012610546565b6105f66000820161057e565b9161060e60006106078185016105a5565b93016105d2565b90565b60ff1690565b61062090610611565b9052565b634e487b7160e01b600052602160045260246000fd5b6003111561064457565b610624565b906106538261063a565b565b61065e90610649565b90565b61066a90610655565b9052565b60409061069861069f949695939661068e60608401986000850190610617565b6020830190610617565b0190610661565b565b346106d4576106d06106bc6106b7366004610346565b6105df565b6106c7939193610193565b9384938461066e565b0390f35b610199565b3461070a576107066106f56106ef3660046103f8565b906110b3565b6106fd610193565b9182918261046d565b0390f35b610199565b3461073e576107286107223660046104b8565b91611173565b610730610193565b8061073a81610426565b0390f35b610199565b346107735761076f61075e610759366004610346565b6111d3565b610766610193565b9182918261046d565b0390f35b610199565b346107a8576107a461079361078e366004610346565b611242565b61079b610193565b91829182610389565b0390f35b610199565b6107c16107bc6107c692610365565b610527565b610365565b90565b6107d2906107ad565b90565b6107de906107c9565b90565b6107fe7322386b2cdf019e327fbd007790a1c27a1411c9a26107d5565b90565b6108096107e1565b90565b61081590610365565b90565b6108219061080c565b9052565b919061083990600060208501940190610818565b565b3461086b5761084b366004610254565b610867610856610801565b61085e610193565b91829182610825565b0390f35b610199565b9060208282031261088a57610887916000016103e9565b90565b61019e565b346108bf576108bb6108aa6108a5366004610870565b61126f565b6108b2610193565b9182918261046d565b0390f35b610199565b90565b6108db6108d66108e0926108c4565b610527565b61031f565b90565b6108ee6103ea6108c7565b90565b6108f96108e3565b90565b3461092c5761090c366004610254565b6109286109176108f1565b61091f610193565b9182918261046d565b0390f35b610199565b3461096157610941366004610254565b61095d61094c6112de565b610954610193565b918291826102d1565b0390f35b610199565b1c90565b90565b61097d9060086109829302610966565b61096a565b90565b90610990915461096d565b90565b6109a0600b600090610985565b90565b346109d3576109b3366004610254565b6109cf6109be610993565b6109c6610193565b9182918261046d565b0390f35b610199565b6109e1816101f7565b036109e857565b600080fd5b905035906109fa826109d8565b565b9190604083820312610a255780610a19610a2292600086016103e9565b936020016109ed565b90565b61019e565b34610a5957610a43610a3d3660046109fc565b906112f4565b610a4b610193565b80610a5581610426565b0390f35b610199565b34610a8e57610a8a610a79610a74366004610346565b611c47565b610a81610193565b918291826102d1565b0390f35b610199565b90565b610aaa610aa5610aaf92610a93565b610527565b61031f565b90565b610abd610e90610a96565b90565b610ac8610ab2565b90565b34610afb57610adb366004610254565b610af7610ae6610ac0565b610aee610193565b9182918261046d565b0390f35b610199565b600080fd5b600080fd5b634e487b7160e01b600052604160045260246000fd5b90610b2a90610296565b810190811067ffffffffffffffff821117610b4457604052565b610b0a565b90610b5c610b55610193565b9283610b20565b565b67ffffffffffffffff8111610b7c57610b78602091610296565b0190565b610b0a565b90826000939282370152565b90929192610ba2610b9d82610b5e565b610b49565b93818552602085019082840111610bbe57610bbc92610b81565b565b610b05565b9080601f83011215610be157816020610bde93359101610b8d565b90565b610b00565b90608082820312610c4157610bfe81600084016103e9565b92610c0c82602085016103e9565b92610c1a8360408301610337565b92606082013567ffffffffffffffff8111610c3c57610c399201610bc3565b90565b6101a3565b61019e565b34610c7857610c62610c59366004610be6565b92919091611e96565b610c6a610193565b80610c7481610426565b0390f35b610199565b34610cad57610ca9610c98610c93366004610346565b6124af565b610ca0610193565b918291826102d1565b0390f35b610199565b9190604083820312610cdb5780610ccf610cd892600086016103e9565b936020016103e9565b90565b61019e565b34610d1157610d0d610cfc610cf6366004610cb2565b9061271a565b610d04610193565b91829182610209565b0390f35b610199565b610d21366004610254565b610d3d610d2c612ccc565b610d34610193565b9182918261046d565b0390f35b600080fd5b600090565b610d53610d46565b5080610d6e610d6863780e9d6360e01b6101a8565b916101a8565b14908115610d7b575b5090565b610d859150612fd6565b38610d77565b606090565b634e487b7160e01b600052602260045260246000fd5b9060016002830492168015610dc6575b6020831014610dc157565b610d90565b91607f1691610db6565b60209181520190565b600052602060002090565b9060009291805490610dff610df883610da6565b8094610dd0565b91600181169081600014610e585750600114610e1b575b505050565b610e289192939450610dd9565b916000925b818410610e405750500190388080610e16565b60018160209295939554848601520191019290610e2d565b92949550505060ff1916825215156020020190388080610e16565b90610e7d91610de4565b90565b90610ea0610e9992610e90610193565b93848092610e73565b0383610b20565b565b610eab90610e80565b90565b610eb6610d8b565b50610ec16000610ea2565b90565b600090565b610ee590610ed5610ec4565b50610edf8161303e565b506130e0565b90565b90610efc9190610ef66130ff565b9161310c565b565b600090565b5490565b610f0f610efe565b50610f1a6008610f03565b90565b90565b610f34610f2f610f3992610f1d565b610527565b610365565b90565b610f4590610f20565b90565b604090610f72610f799496959396610f686060840198600085019061037c565b6020830190610460565b019061037c565b565b919080610f99610f93610f8e6000610f3c565b610370565b91610370565b14610ff757610fb19082610fab6130ff565b9161311c565b9182610fc5610fbf83610370565b91610370565b03610fcf57505050565b610ff3909192610fdd610193565b9384936364283d7b60e01b855260048501610f48565b0390fd5b6110226110046000610f3c565b61100c610193565b918291633250574960e11b835260048301610389565b0390fd5b9160206110489294936110416040820196600083019061037c565b0190610460565b565b611053906107ad565b90565b61105f9061104a565b90565b9061106c90611056565b600052602052604060002090565b906110849061052a565b600052602052604060002090565b61109e6110a39161055e565b61096a565b90565b6110b09054611092565b90565b6110bb610efe565b50816110d76110d16110cc8461126f565b61031f565b9161031f565b10156110fc576110f9916110ef6110f4926006611062565b61107a565b6110a6565b90565b61111d611107610193565b92839263295f44f760e21b845260048401611026565b0390fd5b67ffffffffffffffff811161113f5761113b602091610296565b0190565b610b0a565b9061115661115183611121565b610b49565b918252565b6111656000611144565b90565b61117061115b565b90565b916111879291611181611168565b92611e96565b565b634e487b7160e01b600052603260045260246000fd5b600052602060002090565b6111b381610f03565b8210156111ce576111c560019161119f565b91020190600090565b611189565b6111db610efe565b50806111f66111f06111eb610f07565b61031f565b9161031f565b10156112135761120a6112109160086111aa565b90610985565b90565b61121d6000610f3c565b61123e611228610193565b92839263295f44f760e21b845260048401611026565b0390fd5b6112549061124e610ec4565b5061303e565b90565b9061126190611056565b600052602052604060002090565b611277610efe565b508061129461128e6112896000610f3c565b610370565b91610370565b146112af576112a76112ac916003611257565b6110a6565b90565b6112da6112bc6000610f3c565b6112c4610193565b9182916322718ad960e21b835260048301610389565b0390fd5b6112e6610d8b565b506112f16001610ea2565b90565b611308916113006130ff565b919091613223565b565b9061131490610611565b9052565b9061132290610649565b9052565b6113306060610b49565b90565b906113816113786000611344611326565b9461135b61135383830161057e565b83880161130a565b6113726113698383016105a5565b6020880161130a565b016105d2565b60408401611318565b565b61138c90611333565b90565b6113989061104a565b90565b90565b6113aa6113af9161031f565b61139b565b9052565b60601b90565b6113c2906113b3565b90565b6113ce906113b9565b90565b6113dd6113e291610370565b6113c5565b9052565b6020816113f9611401936014969561139e565b0180926113d1565b0190565b60200190565b5190565b6114199051610649565b90565b6114269051610611565b90565b5490565b600052602060002090565b61144181611429565b82101561145c5761145360019161142d565b91020190600090565b611189565b5490565b600052602060002090565b61147981611461565b8210156114945761148b600191611465565b91020190600090565b611189565b905090565b6114c36114ba926020926114b181610264565b94858093611499565b93849101610271565b0190565b60007f3c646566733e0000000000000000000000000000000000000000000000000000910152565b6114fb60068092611499565b611504816114c7565b0190565b60207f222079313d223025222078323d2231303025222079323d2231303025223e0000917f3c6c696e6561724772616469656e742069643d2267726164222078313d22302560008201520152565b611562603e8092611499565b61156b81611508565b0190565b60007f3c73746f70206f66667365743d223025222073746f702d636f6c6f723d220000910152565b6115a3601e8092611499565b6115ac8161156f565b0190565b90600092918054906115cb6115c483610da6565b8094611499565b9160018116908160001461161f57506001146115e7575b505050565b6115f49192939450610dd9565b6000905b83821061160b57505001903880806115e2565b6001816020925484860152019101906115f8565b92949550505060ff191682528015150201903880806115e2565b600073111039ba37b816b7b830b1b4ba3c9e911891179f60611b910152565b61166460148092611499565b61166d81611639565b0190565b60007f3c73746f70206f66667365743d22353025222073746f702d636f6c6f723d2200910152565b6116a5601f8092611499565b6116ae81611671565b0190565b600075111039ba37b816b7b830b1b4ba3c9e9118171b11179f60511b910152565b6116df60168092611499565b6116e8816116b2565b0190565b60007f3c73746f70206f66667365743d2231303025222073746f702d636f6c6f723d22910152565b61172060208092611499565b611729816116ec565b0190565b60007f3c2f6c696e6561724772616469656e743e000000000000000000000000000000910152565b61176160118092611499565b61176a8161172d565b0190565b60007f3c2f646566733e00000000000000000000000000000000000000000000000000910152565b6117a260078092611499565b6117ab8161176e565b0190565b60007f203c7374796c653e000000000000000000000000000000000000000000000000910152565b6117e360088092611499565b6117ec816117af565b0190565b60007f202e7477696e6b6c65207b000000000000000000000000000000000000000000910152565b611824600b8092611499565b61182d816117f0565b0190565b60007f20616e696d6174696f6e3a207477696e6b6c6520337320696e66696e6974653b910152565b61186560208092611499565b61186e81611831565b0190565b60007f7d00000000000000000000000000000000000000000000000000000000000000910152565b6118a660018092611499565b6118af81611872565b0190565b60007f406b65796672616d6573207477696e6b6c65207b000000000000000000000000910152565b6118e760148092611499565b6118f0816118b3565b0190565b60007f30252020207b2066696c6c3a2000000000000000000000000000000000000000910152565b611928600d8092611499565b611931816118f4565b0190565b60007f3b207d0000000000000000000000000000000000000000000000000000000000910152565b61196960038092611499565b61197281611935565b0190565b60007f33332520207b2066696c6c3a2000000000000000000000000000000000000000910152565b6119aa600d8092611499565b6119b381611976565b0190565b60007f36362520207b2066696c6c3a2000000000000000000000000000000000000000910152565b6119eb600d8092611499565b6119f4816119b7565b0190565b60007f3130302520207b2066696c6c3a20000000000000000000000000000000000000910152565b611a2c600e8092611499565b611a35816119f8565b0190565b60007f3c2f7374796c653e000000000000000000000000000000000000000000000000910152565b611a6d60088092611499565b611a7681611a39565b0190565b96611b75611b70611b6b611b9099611b65611b60611b5b611b9a9f9b9c611b959f611b50611b8b9f611b46611b859f611b809f611b7b9f611b32611b2d611b28611b4b97611b22611b1d611b18611b4199611b12611b559f611b08611b3c9c611b02611afd611af8611b379f611b0d96611af39161149e565b6114ef565b611556565b611597565b906115b0565b611658565b611699565b906115b0565b6116d3565b611714565b906115b0565b611658565b611755565b611796565b6117d7565b611818565b611859565b61189a565b6118db565b61191c565b906115b0565b61195d565b61199e565b906115b0565b61195d565b6119df565b906115b0565b61195d565b611a20565b906115b0565b61195d565b61189a565b611a61565b90565b90565b90565b61ffff1690565b611bbe611bb9611bc392611ba0565b610527565b611ba3565b90565b611bd060c8611baa565b90565b63ffffffff1690565b611bf0611beb611bf592610f1d565b610527565b611bd3565b90565b611c0c611c07611c1192610f1d565b610527565b611ba3565b90565b611c28611c23611c2d92610f1d565b610527565b610611565b90565b611c3e90611c44939261149e565b9061149e565b90565b611d4e90611c53610d8b565b50611c68611c6360128390610546565b611383565b611c70610d8b565b91611ca4611c7d3061138f565b91611c95611c89610193565b938492602084016113e6565b60208201810382520382610b20565b611cb6611cb08261140b565b91611405565b2090611cc46040820161140f565b611cd7611cd16000610649565b91610649565b03611d51575b611d4991611d219190600080600090611cf4611bc6565b93611d1b611d15611d0f611d09600097611bdc565b94611bf8565b94611bf8565b94611c14565b9561377e565b5091611d3a611d2e610193565b93849260208401611c30565b60208201810382520382610b20565b611b9d565b90565b91611d4991611e8c611d2192611e87611d83611d7a600e611d7460008b0161141c565b90611438565b50600090611470565b5091611e78611dab611da2600e611d9c60008d0161141c565b90611438565b50600190611470565b5089611dd0611dc7600e611dc16000850161141c565b90611438565b50600290611470565b50611df4611deb600e611de56000860161141c565b90611438565b50600090611470565b50611e18611e0f600e611e096000870161141c565b90611438565b50600190611470565b5091611e62611e59611e43611e3a600e611e3460008a0161141c565b90611438565b50600290611470565b5095611e536000600e920161141c565b90611438565b50600390611470565b5094611e6c610193565b998a9860208a01611a7a565b60208201810382520382610b20565b611b9d565b9391509150611cdd565b91611eb2939192611ea981858491610f7b565b92909192613cd9565b565b60007f6e6f742065786973740000000000000000000000000000000000000000000000910152565b611ee96009602092610268565b611ef281611eb4565b0190565b611f0c9060208101906000818303910152611edc565b90565b15611f1657565b611f1e610193565b62461bcd60e51b815280611f3460048201611ef6565b0390fd5b60007f47656e6572617469766554696c696e674e465420230000000000000000000000910152565b611f6c60158092611499565b611f7581611f38565b0190565b90611f86611f8c92611f60565b9061149e565b90565b60007f546869732047544e46542069732070616c6c657474653a200000000000000000910152565b611fc360188092611499565b611fcc81611f8f565b0190565b60007f2077697468207374796c653a2000000000000000000000000000000000000000910152565b612004600d8092611499565b61200d81611fd0565b0190565b60007f20616e6420666561747572653a20000000000000000000000000000000000000910152565b612045600e8092611499565b61204e81612011565b0190565b60007f2e00000000000000000000000000000000000000000000000000000000000000910152565b61208660018092611499565b61208f81612052565b0190565b6120c26120cd936120bc6120b76120d297956120b16120c796611fb7565b906115b0565b611ff8565b906115b0565b612039565b906115b0565b61207a565b90565b90565b6120e1906107ad565b90565b6120f86120f36120fd92610365565b610527565b61031f565b90565b90565b61211761211261211c92612100565b610527565b61031f565b90565b6000683d913730b6b2911d1160b91b910152565b61213f60098092611499565b6121488161211f565b0190565b600071111610113232b9b1b934b83a34b7b7111d1160711b910152565b61217560128092611499565b61217e8161214c565b0190565b60207f626f79732e636f6d2f746f6b656e2f0000000000000000000000000000000000917f222c202265787465726e616c5f75726c223a2268747470733a2f2f6275726e7960008201520152565b6121dc602f8092611499565b6121e581612182565b0190565b7f222c202261747472696275746573223a205b7b2274726169745f74797065223a600082015260207510113830b63632ba3a32911610113b30b63ab2911d1160511b910152565b61223c60368092611499565b612245816121e9565b0190565b7f227d2c7b2274726169745f74797065223a20227374796c65222c202276616c75600082015260206332911d1160e11b910152565b61228a60248092611499565b61229381612249565b0190565b7f227d2c7b2274726169745f74797065223a202266656174757265222c202276616000820152602065363ab2911d1160d11b910152565b6122da60268092611499565b6122e381612297565b0190565b60006d113eae96101137bbb732b9111d1160911b910152565b61230c600e8092611499565b612315816122e7565b0190565b60006c1116101134b6b0b3b2911d101160991b910152565b61233d600d8092611499565b61234681612319565b0190565b60007f646174613a696d6167652f7376672b786d6c3b6261736536342c000000000000910152565b61237e601a8092611499565b6123878161234a565b0190565b600061227d60f01b910152565b6123a460028092611499565b6123ad8161238b565b0190565b612455989661242f61242a61244a9861242461241f6124459a6124196124509f9a6124409c61240e6124096124149361240361243a9f6124359f906123f86123fe92612133565b9061149e565b612169565b9061149e565b6121d0565b9061149e565b612230565b906115b0565b61227e565b906115b0565b6122ce565b906115b0565b612300565b9061149e565b612331565b612372565b9061149e565b612398565b90565b60007f646174613a6170706c69636174696f6e2f6a736f6e3b6261736536342c000000910152565b61248c601d8092611499565b61249581612458565b0190565b906124a66124ac92612480565b9061149e565b90565b6126ac6126bb6126986126c0936124c4610d8b565b506124f36124d182613e48565b6124ec6124e66124e16000610f3c565b610370565b91610370565b1415611f0f565b61269361250a61250560128490610546565b611383565b61268461254761253361254261251f87613ef1565b612527610193565b92839160208301611f79565b60208201810382520382610b20565b611b9d565b916125ca612562600f61255c6000850161141c565b90611470565b506125c561257d60106125776020870161141c565b90611470565b50916125b66125a1601161259b61259660408a0161140f565b610655565b90611470565b506125aa610193565b94859360208501612093565b60208201810382520382610b20565b611b9d565b926125e46125df6125da886141c6565b6120d5565b61430c565b9093956125f081613ef1565b92612608600f6126026000840161141c565b90611470565b5061266e61265e61265961265461264d61262f601061262960208a0161141c565b90611470565b509661264761264260406011930161140f565b610655565b90611470565b5096611242565b6120d8565b6120e4565b6126686014612103565b90614543565b9394612678610193565b998a9860208a016123b1565b60208201810382520382610b20565b61430c565b6126a0610193565b92839160208301612499565b60208201810382520382610b20565b611b9d565b90565b906126cd90611056565b600052602052604060002090565b906126e590611056565b600052602052604060002090565b60ff1690565b61270561270a9161055e565b6126f3565b90565b61271790546126f9565b90565b61273f9161273561273a9261272d610d46565b5060056126c3565b6126db565b61270d565b90565b60007f444f4e45204d494e54494e470000000000000000000000000000000000000000910152565b612777600c602092610268565b61278081612742565b0190565b61279a906020810190600081830391015261276a565b90565b156127a457565b6127ac610193565b62461bcd60e51b8152806127c260048201612784565b0390fd5b60007f4e4f5420454e4f55474800000000000000000000000000000000000000000000910152565b6127fb600a602092610268565b612804816127c6565b0190565b61281e90602081019060008183039101526127ee565b90565b1561282857565b612830610193565b62461bcd60e51b81528061284660048201612808565b0390fd5b634e487b7160e01b600052601160045260246000fd5b61286f6128759193929361031f565b9261031f565b9161288183820261031f565b92818404149015171561289057565b61284a565b90565b6128ac6128a76128b192612895565b610527565b61031f565b90565b634e487b7160e01b600052601260045260246000fd5b6128d66128dc9161031f565b9161031f565b9081156128e7570490565b6128b4565b60001b90565b906128ff600019916128ec565b9181191691161790565b90565b9061292161291c6129289261052a565b612909565b82546128f2565b9055565b90565b61294361293e6129489261292c565b610527565b61031f565b90565b61295a6129609193929361031f565b9261031f565b820180921161296b57565b61284a565b61297f6129859193929361031f565b9261031f565b820391821161299057565b61284a565b90565b90565b6129a76129ac91612995565b612998565b9052565b926129dd60206129e5946129d582886129cd60149b9a8c9961139e565b01809261299b565b0180926113d1565b0180926113d1565b0190565b6129fd6129f8612a0292610f1d565b610527565b61031f565b90565b60f81b90565b60f81c90565b612a25612a20612a2a92610611565b610527565b610611565b90565b612a39612a3e91612a0b565b612a11565b90565b612a55612a50612a5a92610611565b610527565b61031f565b90565b90565b612a74612a6f612a7992612a5d565b610527565b61031f565b90565b612a90612a8b612a959261031f565b610527565b610611565b90565b90612aa460ff916128ec565b9181191691161790565b90565b90612ac6612ac1612acd92612a11565b612aae565b8254612a98565b9055565b90565b612ae8612ae3612aed92612ad1565b610527565b61031f565b90565b60081b90565b90612b0361ff0091612af0565b9181191691161790565b90612b22612b1d612b2992612a11565b612aae565b8254612af6565b9055565b90565b612b44612b3f612b4992612b2d565b610527565b61031f565b90565b90565b612b63612b5e612b6892612b4c565b610527565b61031f565b90565b612b7f612b7a612b849261031f565b610527565b610649565b90565b60101b90565b90612b9b62ff000091612b87565b9181191691161790565b612bae90610649565b90565b90565b90612bc9612bc4612bd092612ba5565b612bb1565b8254612b8d565b9055565b612bdd9061104a565b90565b905090565b612bf160008092612be0565b0190565b612bfe90612be5565b90565b90612c13612c0e83610b5e565b610b49565b918252565b606090565b3d600014612c3a57612c2e3d612c01565b903d6000602084013e5b565b612c42612c18565b90612c38565b60007f636f756c64206e6f742073656e64000000000000000000000000000000000000910152565b612c7d600e602092610268565b612c8681612c48565b0190565b612ca09060208101906000818303910152612c70565b90565b15612caa57565b612cb2610193565b62461bcd60e51b815280612cc860048201612c8a565b0390fd5b612cd4610efe565b50612d01612ce2600a6110a6565b612cfb612cf5612cf0610ab2565b61031f565b9161031f565b1061279d565b612d2734612d20612d1a612d15600b6110a6565b61031f565b9161031f565b1015612821565b612d60612d59612d48612d3a600b6110a6565b612d426108e3565b90612860565b612d536103e8612898565b906128ca565b600b61290c565b612d86612d7f612d70600161292f565b612d7a600a6110a6565b61294b565b600a61290c565b612d9a33612d94600a6110a6565b90614673565b612da4600a6110a6565b612dee612dbb43612db5600161292f565b90612970565b4091612ddf33612dca3061138f565b90612dd3610193565b958694602086016129b0565b60208201810382520382610b20565b612e00612dfa8261140b565b91611405565b20612e0b600f611461565b8190612e1760006129e9565b6020811015612fd157612e4e612e6392612e48612e43612e3e612e8097612e5e961a612a05565b612a2d565b612a41565b90612860565b612e5860ff612a60565b906128ca565b612a7c565b6000612e7a6012612e74600a6110a6565b90610546565b01612ab1565b60048190612e8e600161292f565b916020831015612fcc57612ece612ee392612ec9612ec3612ebe612eb9612ede96612f00991a612a05565b612a2d565b612a41565b91612ad4565b612860565b612ed860ff612a60565b906128ca565b612a7c565b6000612efa6012612ef4600a6110a6565b90610546565b01612b0d565b6003612f0c6002612b30565b916020831015612fc757612f4c612f6192612f47612f41612f3c612f37612f5c96612f7e991a612a05565b612a2d565b612a41565b91612b4f565b612860565b612f5660ff612a60565b906128ca565b612b6b565b6000612f786012612f72600a6110a6565b90610546565b01612bb4565b612fba600080612f94612f8f6107e1565b612bd4565b34612f9d610193565b9081612fa881612bf5565b03925af1612fb4612c1d565b50612ca3565b612fc4600a6110a6565b90565b611189565b611189565b611189565b612fde610d46565b5080612ff9612ff36380ac58cd60e01b6101a8565b916101a8565b14801561301d575b90811561300d575b5090565b613017915061472a565b38613009565b5080613038613032635b5e139f60e01b6101a8565b916101a8565b14613001565b613046610ec4565b5061305081613e48565b908161306d6130676130626000610f3c565b610370565b91610370565b14613076575090565b61309890613082610193565b918291637e27328960e01b83526004830161046d565b0390fd5b906130a69061052a565b600052602052604060002090565b60018060a01b031690565b6130cb6130d09161055e565b6130b4565b90565b6130dd90546130bf565b90565b6130f76130fc916130ef610ec4565b50600461309c565b6130d3565b90565b613107610ec4565b503390565b9161311a929160019261478e565b565b90916131359061312a610ec4565b5082908490916148ef565b918261315261314c6131476000610f3c565b610370565b91610370565b146000146131c65761316381614c09565b5b8161318061317a6131756000610f3c565b610370565b91610370565b14600014613196576131929150614cd3565b5b90565b826131a96131a384610370565b91610370565b036131b6575b5050613193565b6131bf91614c3c565b38806131af565b826131d96131d384610370565b91610370565b036131e4575b613164565b6131ef838290614ad6565b6131df565b6131fd906101f7565b90565b90565b9061321861321361321f926131f4565b613200565b8254612a98565b9055565b9190918261324261323c6132376000610f3c565b610370565b91610370565b146132b6576132668261326161325a600585906126c3565b86906126db565b613203565b9190916132b161329f6132997f17307eab39ab6107e8899845ad3d59bd9653f200f220920489ca2b5937696c3193611056565b93611056565b936132a8610193565b91829182610209565b0390a3565b6132d8836132c2610193565b918291630b61174360e31b835260048301610389565b0390fd5b600090565b6132f56132f06132fa9261292c565b610527565b610611565b90565b61331161330c61331692611bd3565b610527565b61031f565b90565b90565b61333061332b61333592613319565b610527565b61031f565b90565b61334461334a9161031f565b9161031f565b908115613355570690565b6128b4565b90565b61337161336c6133769261335a565b610527565b610611565b90565b613383604661335d565b90565b61339a61339561339f9261292c565b610527565b611bd3565b90565b6133ae6133b491611bd3565b91611bd3565b019063ffffffff82116133c357565b61284a565b90565b6133df6133da6133e4926133c8565b610527565b610611565b90565b6133f160286133cb565b90565b61340861340361340d92612b2d565b610527565b611bd3565b90565b61341861115b565b90565b60007f75726c2823677261642900000000000000000000000000000000000000000000910152565b61344d600a611144565b9061345a6020830161341b565b565b613464613443565b90565b61347b61347661348092612b2d565b610527565b611ba3565b90565b61348f61349591611ba3565b91611ba3565b9081156134a0570490565b6128b4565b6134b16134b791611ba3565b91611ba3565b019061ffff82116134c457565b61284a565b6134dd6134d86134e292611ba3565b610527565b61031f565b90565b60006f2220636c6173733d227477696e6b6c6560801b910152565b61350a6010611144565b90613517602083016134e5565b565b613521613500565b90565b90565b61353b61353661354092613524565b610527565b61031f565b90565b60006b1e31b4b931b6329031bc1e9160a11b910152565b613566600c8092611499565b61356f81613543565b0190565b600065111031bc9e9160d11b910152565b61359060068092611499565b61359981613573565b0190565b6000641110391e9160d91b910152565b6135b960058092611499565b6135c28161359d565b0190565b60007f22207374796c653d22616e696d6174696f6e2d64656c61793a20000000000000910152565b6135fa601a8092611499565b613603816135c6565b0190565b60007f6d73200000000000000000000000000000000000000000000000000000000000910152565b61363b60038092611499565b61364481613607565b0190565b60006711103334b6361e9160c11b910152565b61366760088092611499565b61367081613648565b0190565b60006211179f60e91b910152565b61368e60038092611499565b61369781613674565b0190565b946136f66136f161371198966136eb613706976136e56136e0613701996136da6136d561370c9f9b6136cf6136fc9d61355a565b9061149e565b613584565b9061149e565b6135ad565b9061149e565b9061149e565b6135ee565b9061149e565b61362f565b61365b565b9061149e565b613682565b90565b61372061372691610611565b91610611565b019060ff821161373257565b61284a565b61374b61374661375092612b4c565b610527565b611bd3565b90565b6137759261376961376f9261377b97969461149e565b9061149e565b9061149e565b9061149e565b90565b939496959691909161378e610d8b565b506137976132dc565b506137b6886137af6137a960016132e1565b91610611565b10156101f7565b80613b91575b6138e4576137eb6137da61383c926137d46002613467565b90613483565b986137e560016132e1565b90613714565b916137f4610d8b565b506137fd610d8b565b50613806610d8b565b5061380f610d8b565b506138186132dc565b508590613830859161382a6003613737565b906133a2565b8689918c93879561377e565b9061385f9891989098869085906138548886906134a5565b8a918693889561377e565b90613882979197909787908690886138788688906134a5565b918793899561377e565b6138a16138a99792613899909997929386906134a5565b9385906134a5565b93949561377e565b926138cc6138db926138e0959792946138c0610193565b95869460208601613753565b60208201810382520382610b20565b611b9d565b9190565b949392919096506139246139148261390e6139098b6139036001613386565b906133a2565b6132fd565b90614d9d565b61391e606461331c565b90613338565b61393d6139376139326133e7565b612a41565b9161031f565b11600014613b6a5792613ae883613af79386613a6b6040613a64613a5f613a5a8f613a44613b0d9f9d613afc9f8f90613a3f926139be6139b86139a3613a499861399d6139986139c497926139926001613386565b906133a2565b6132fd565b90614d9d565b926139b26000600e920161141c565b90611438565b50611461565b90613338565b8c6139d08a820161140f565b6139e36139dd6001610649565b91610649565b14600014613b2e575050613a39613a27613a22613a1d613a0161345c565b5b9e613a1786613a116002613467565b90613483565b906134a5565b6134c9565b613ef1565b9e91613a336002613467565b90613483565b906134a5565b6134c9565b613ef1565b9b613a546002613467565b90613483565b6134c9565b613ef1565b940161140f565b613a7e613a786002610649565b91610649565b14600014613b1057613ad2613acd613abc8d613ab6613ab1613a9e613519565b965b92613aab6001613386565b906133a2565b6132fd565b90614d9d565b613ac76105dc613527565b90613338565b613ef1565b9192613adc610193565b9788966020880161369b565b60208201810382520382610b20565b611b9d565b92613b0760026133f4565b906133a2565b90565b613ad2613acd613abc8d613ab6613ab1613b28613410565b96613aa0565b613a22613a1d613b65613b5f613a3995613b59613a2796613b536000600e920161141c565b90611438565b50611470565b50610ea2565b613a02565b505050505090613b8490613b7e60026133f4565b906133a2565b90613b8d613410565b9190565b5087613bb0613baa613ba56020890161141c565b610611565b91610611565b118015613bbd575b6137bc565b50613be4613bd484613bce856132fd565b90614d9d565b613bde606461331c565b90613338565b613bfd613bf7613bf2613379565b612a41565b9161031f565b11613bb8565b613c0c906107ad565b90565b613c1890613c03565b90565b613c249061104a565b90565b60e01b90565b90505190613c3a826101b4565b565b90602082820312613c5657613c5391600001613c2d565b90565b61019e565b60209181520190565b613c83613c8c602093613c9193613c7a8161140b565b93848093613c5b565b95869101610271565b610296565b0190565b9092613cc990613cbf613cd69694613cb56080860197600087019061037c565b602085019061037c565b6040830190610460565b6060818403910152613c64565b90565b929092833b613cf1613ceb60006129e9565b9161031f565b11613cfd575b50505050565b602091613d3e6000613d16613d1188613c0f565b613c1b565b92613d4963150b7a0291613d286130ff565b9698613d32610193565b998a9889978896613c27565b865260048601613c95565b03925af18091600092613e18575b5015600014613dce57506001613d7257505b38808080613cf7565b613d7a612c1d565b90613d848261140b565b613d97613d9160006129e9565b9161031f565b14600014613dc557613dc190613dab610193565b918291633250574960e11b835260048301610389565b0390fd5b50805190602001fd5b613de7613de1630a85bd0160e11b6101a8565b916101a8565b03613df25750613d69565b613e1490613dfe610193565b918291633250574960e11b835260048301610389565b0390fd5b613e3a91925060203d8111613e41575b613e328183610b20565b810190613c3c565b9038613d57565b503d613e28565b613e5f613e6491613e57610ec4565b50600261309c565b6130d3565b90565b90613e72910161031f565b90565b369037565b90613e9f613e8783611144565b92602080613e958693611121565b9201910390613e75565b565b6001613ead910361031f565b90565b90565b613ec7613ec2613ecc92613eb0565b610527565b61031f565b90565b613edb613ee19161031f565b9161031f565b908115613eec570490565b6128b4565b613ef9610d8b565b50613f16613f0682614ee7565b613f10600161292f565b90613e67565b90613f2082613e7a565b91613f29610efe565b5060200182015b600115613f9457613f43613f6f91613ea1565b916f181899199a1a9b1b9c1cb0b131b232b360811b600a82061a8353613f69600a613eb3565b90613ecf565b80613f83613f7d60006129e9565b9161031f565b14613f8e5790613f30565b50505b90565b5050613f91565b60006b1e39bb33903bb4b23a341e9160a11b910152565b613fbe600c8092611499565b613fc781613f9b565b0190565b60006911103432b4b3b43a1e9160b11b910152565b613fec600a8092611499565b613ff581613fcb565b0190565b60006e011103b34b2bba137bc1e911810181608d1b910152565b61401f600f8092611499565b61402881613ff9565b0190565b60007f2000000000000000000000000000000000000000000000000000000000000000910152565b61406060018092611499565b6140698161402c565b0190565b7f2220786d6c6e733d22687474703a2f2f7777772e77332e6f72672f323030302f600082015260206439bb33911f60d91b910152565b6140af60258092611499565b6140b88161406d565b0190565b7f3c726563742077696474683d223130302522206865696768743d2231303025226000820152602070103334b6361e911198b098b098b091179f60791b910152565b61410a60318092611499565b614113816140bc565b0190565b60007f3c2f7376673e0000000000000000000000000000000000000000000000000000910152565b61414b60068092611499565b61415481614117565b0190565b6141be946141a86141a36141c3989661419d6141986141b89861419261418d6141b39a6141876141ae9b613fb2565b9061149e565b613fe0565b9061149e565b614013565b9061149e565b614054565b9061149e565b6140a3565b6140fe565b9061149e565b61413f565b90565b61426d906141d2610d8b565b506142686141ee6141e96141e4611bc6565b6134c9565b613ef1565b6142596142096142046141ff611bc6565b6134c9565b613ef1565b9361422261421d614218611bc6565b6134c9565b613ef1565b9061424461423e614239614234611bc6565b6134c9565b613ef1565b91611c47565b9161424d610193565b96879560208701614158565b60208201810382520382610b20565b611b9d565b90565b60207f6768696a6b6c6d6e6f707172737475767778797a303132333435363738392b2f917f4142434445464748494a4b4c4d4e4f505152535455565758595a61626364656660008201520152565b6142c86040611144565b906142d560208301614270565b565b6142df6142be565b90565b6142ea6142d7565b90565b90565b6143046142ff614309926142ed565b610527565b61031f565b90565b614314610d8b565b5061431e8161140b565b61433161432b60006129e9565b9161031f565b1461443e5761433e6142e2565b906001614383600461437e6143786143686143588761140b565b6143626002612b30565b9061294b565b6143726003612b4f565b906128ca565b91612ad4565b612860565b926143a061439b8561439560206142f0565b9061294b565b613e7a565b93845201908091815183019060208501935b8281106143f7575050506003905106806001146143e5576002146143d5575b5090565b6001603d60f81b910352386143d1565b506002613d3d60f01b910352386143d1565b6003600191959293950191603f828080865194848660121c168901518153018385600c1c16880151815301828460061c1687015181530191168401518153019391906143b2565b50614447613410565b90565b9061446f61445783612c01565b926020806144658693610b5e565b9201910390613e75565b565b600360fc1b90565b906144838261140b565b81101561449557600160209102010190565b611189565b600f60fb1b90565b6144ab9061031f565b600081146144ba576001900390565b61284a565b6f181899199a1a9b1b9c1cb0b131b232b360811b90565b6144de6144bf565b90565b90565b6144f86144f36144fd926144e1565b610527565b61031f565b90565b61451461450f61451992612ad1565b610527565b610611565b90565b61453b9061453561452f61454094610611565b9161031f565b90610966565b61031f565b90565b919061454d610d8b565b506145e76145d761458361457e61456e60026145698791612b30565b612860565b6145786002612b30565b9061294b565b61444a565b9261458c614471565b6145a58561459f60009360001a936129e9565b90614479565b536145ae61449a565b6145c7856145c160019360001a9361292f565b90614479565b536145d26002612b30565b612860565b6145e1600161292f565b9061294b565b925b836145fd6145f7600161292f565b9161031f565b11156146645761460b6144d6565b81614616600f6144e4565b1691601083101561465f5761463261465392614659941a612a05565b6146428591889060001a92614479565b5361464d6004614500565b9061451c565b936144a2565b926145e9565b611189565b50614670919250611b9d565b90565b908161469061468a6146856000610f3c565b610370565b91610370565b146146fb576146aa91906146a46000610f3c565b9161311c565b6146c56146bf6146ba6000610f3c565b610370565b91610370565b036146cc57565b6146f76146d96000610f3c565b6146e1610193565b9182916339e3563760e11b835260048301610389565b0390fd5b6147266147086000610f3c565b614710610193565b918291633250574960e11b835260048301610389565b0390fd5b614732610d46565b5061474c6147466301ffc9a760e01b6101a8565b916101a8565b1490565b9061476160018060a01b03916128ec565b9181191691161790565b90565b9061478361477e61478a92611056565b61476b565b8254614750565b9055565b9190928080156148bd575b6147b7575b5050906147b06147b59291600461309c565b61476e565b565b6147c08461303e565b91806147dd6147d76147d26000610f3c565b610370565b91610370565b1415806148a2575b80614888575b6148625750916147b0916147b59493614807575b50919261479e565b81849061484661484061483a7f8c5be1e5ebec7d5bd14f71427d1e84f3dd0314c0f7b2291e5b200ac8c7c3b92595611056565b92611056565b9261052a565b9261484f610193565b8061485981610426565b0390a4386147ff565b6148849061486e610193565b91829163a9fbf51f60e01b835260048301610389565b0390fd5b5061489d61489784839061271a565b156101f7565b6147eb565b50826148b66148b083610370565b91610370565b14156147e5565b50816148da6148d46148cf6000610f3c565b610370565b91610370565b1415614799565b906148ec910361031f565b90565b906148f8610ec4565b5061490281613e48565b928061491f6149196149146000610f3c565b610370565b91610370565b03614a63575b508261494261493c6149376000610f3c565b610370565b91610370565b03614a0c575b8161496461495e6149596000610f3c565b610370565b91610370565b036149d6575b61497f8261497a6002849061309c565b61476e565b82916149bd6149b76149b17fddf252ad1be2c89b69c2b068fc378daa952ba7f163c4a11628f55a4df523b3ef95611056565b92611056565b9261052a565b926149c6610193565b806149d081610426565b0390a490565b614a076149e3600161292f565b614a016149f260038690611257565b916149fc836110a6565b613e67565b9061290c565b61496a565b614a2d614a196000610f3c565b82614a246000610f3c565b9060009261478e565b614a5e614a3a600161292f565b614a58614a4960038790611257565b91614a53836110a6565b6148e1565b9061290c565b614948565b614a709084908391615149565b38614925565b1b90565b91906008614a96910291614a9060001984614a76565b92614a76565b9181191691161790565b9190614ab6614ab1614abe9361052a565b612909565b908354614a7a565b9055565b614ad491614ace610efe565b91614aa0565b565b614b3a614b3f92614b35600093614b2e85614b29614af38461126f565b95614b08614b036007839061107a565b6110a6565b80614b1b614b158a61031f565b9161031f565b03614b41575b50600761107a565b614ac2565b6006611062565b61107a565b614ac2565b565b614b9390614b8e614b66614b61614b5a60068b90611062565b8c9061107a565b6110a6565b91614b8683614b81614b7a60068d90611062565b849061107a565b61290c565b91600761107a565b61290c565b38614b21565b90565b600052602060002090565b5490565b614bb481614ba7565b821015614bcf57614bc6600191614b9c565b91020190600090565b611189565b9081549168010000000000000000831015614c045782614bfc916001614c0295018155614bab565b90614aa0565b565b610b0a565b614c3a90614c2b614c1a6008610f03565b614c266009849061107a565b61290c565b614c356008614b99565b614bd4565b565b90614c87614c8c92614c7f614c63614c538361126f565b614c5d600161292f565b90612970565b91614c7a614c7386926006611062565b849061107a565b61290c565b91600761107a565b61290c565b565b634e487b7160e01b600052603160045260246000fd5b614cad81614ba7565b8015614cce576001900390614ccb614cc58383614bab565b90614ac2565b55565b614c8e565b6000614d52614d5792614d4b614cfc614cec6008610f03565b614cf6600161292f565b90612970565b614d46614d27614d21614d19614d146009889061107a565b6110a6565b9360086111aa565b90610985565b91614d3e83614d38600884906111aa565b90614aa0565b91600961107a565b61290c565b600961107a565b614ac2565b614d69614d646008614b99565b614ca4565b565b602081614d7d614d859383969561299b565b01809261139e565b0190565b614d95614d9a9161055e565b61052a565b90565b90614dd4614dec92614dad610efe565b50614dc5614db9610193565b93849260208401614d6b565b60208201810382520382610b20565b614de6614de08261140b565b91611405565b20614d89565b90565b90565b614e06614e01614e0b92614def565b610527565b61031f565b90565b90565b614e25614e20614e2a92614e0e565b610527565b61031f565b90565b90565b614e44614e3f614e4992614e2d565b610527565b61031f565b90565b90565b614e63614e5e614e6892614e4c565b610527565b61031f565b90565b90565b614e82614e7d614e8792614e6b565b610527565b61031f565b90565b90565b614ea1614e9c614ea692614e8a565b610527565b61031f565b90565b90565b614ec0614ebb614ec592614ea9565b610527565b61031f565b90565b90565b614edf614eda614ee492614ec8565b610527565b61031f565b90565b614eef610efe565b50614efa60006129e9565b9080614f29614f237a184f03e93ff9f4daa797ed6e38ed64bf6a1f010000000000000000614df2565b9161031f565b1015615101575b80614f51614f4b6d04ee2d6d415b85acef8100000000614e30565b9161031f565b10156150c6575b80614f72614f6c662386f26fc10000614e4f565b9161031f565b1015615092575b80614f90614f8a6305f5e100614e8d565b9161031f565b1015615061575b80614fac614fa6612710614ecb565b9161031f565b1015615032575b80614fc7614fc1606461331c565b9161031f565b1015615004575b614fe1614fdb600a613eb3565b9161031f565b1015614feb575b90565b614fff90614ff9600161292f565b90613e67565b614fe8565b61501b61502c91615015606461331c565b90613ecf565b916150266002612b30565b90613e67565b90614fce565b61504a61505b91615044612710614ecb565b90613ecf565b916150556004612ad4565b90613e67565b90614fb3565b61507b61508c916150756305f5e100614e8d565b90613ecf565b916150866008614eac565b90613e67565b90614f97565b6150af6150c0916150a9662386f26fc10000614e4f565b90613ecf565b916150ba6010614e6e565b90613e67565b90614f79565b6150ea6150fb916150e46d04ee2d6d415b85acef8100000000614e30565b90613ecf565b916150f560206142f0565b90613e67565b90614f58565b6151326151439161512c7a184f03e93ff9f4daa797ed6e38ed64bf6a1f010000000000000000614df2565b90613ecf565b9161513d6040614e11565b90613e67565b90614f30565b61515e615158828486916151d5565b156101f7565b61516757505050565b61518261517c6151776000610f3c565b610370565b91610370565b146000146151b0576151ac82615196610193565b918291637e27328960e01b83526004830161046d565b0390fd5b6151d16151bb610193565b92839263177e802f60e01b845260048401611026565b0390fd5b91906151df610d46565b50806151fc6151f66151f16000610f3c565b610370565b91610370565b1415928361520b575b50505090565b809192935061522261521c84610370565b91610370565b14908115615264575b5091821561523e575b5050388080615205565b61525c919250615250615256916130e0565b92610370565b91610370565b143880615234565b6152709150829061271a565b3861522b56fea26469706673582212201d8d678d59e155eb61826744302a0ae11c435b80d0be94223eebfdf03234476964736f6c63430008170033",
  "devdoc": {
    "errors": {
      "ERC721EnumerableForbiddenBatchMint()": [
        {
          "details": "Batch mint is not allowed."
        }
      ],
      "ERC721IncorrectOwner(address,uint256,address)": [
        {
          "details": "Indicates an error related to the ownership over a particular token. Used in transfers.",
          "params": {
            "owner": "Address of the current owner of a token.",
            "sender": "Address whose tokens are being transferred.",
            "tokenId": "Identifier number of a token."
          }
        }
      ],
      "ERC721InsufficientApproval(address,uint256)": [
        {
          "details": "Indicates a failure with the `operator`’s approval. Used in transfers.",
          "params": {
            "operator": "Address that may be allowed to operate on tokens without being their owner.",
            "tokenId": "Identifier number of a token."
          }
        }
      ],
      "ERC721InvalidApprover(address)": [
        {
          "details": "Indicates a failure with the `approver` of a token to be approved. Used in approvals.",
          "params": {
            "approver": "Address initiating an approval operation."
          }
        }
      ],
      "ERC721InvalidOperator(address)": [
        {
          "details": "Indicates a failure with the `operator` to be approved. Used in approvals.",
          "params": {
            "operator": "Address that may be allowed to operate on tokens without being their owner."
          }
        }
      ],
      "ERC721InvalidOwner(address)": [
        {
          "details": "Indicates that an address can't be an owner. For example, `address(0)` is a forbidden owner in EIP-20. Used in balance queries.",
          "params": {
            "owner": "Address of the current owner of a token."
          }
        }
      ],
      "ERC721InvalidReceiver(address)": [
        {
          "details": "Indicates a failure with the token `receiver`. Used in transfers.",
          "params": {
            "receiver": "Address to which tokens are being transferred."
          }
        }
      ],
      "ERC721InvalidSender(address)": [
        {
          "details": "Indicates a failure with the token `sender`. Used in transfers.",
          "params": {
            "sender": "Address whose tokens are being transferred."
          }
        }
      ],
      "ERC721NonexistentToken(uint256)": [
        {
          "details": "Indicates a `tokenId` whose `owner` is the zero address.",
          "params": {
            "tokenId": "Identifier number of a token."
          }
        }
      ],
      "ERC721OutOfBoundsIndex(address,uint256)": [
        {
          "details": "An `owner`'s token query was out of bounds for `index`. NOTE: The owner being `address(0)` indicates a global out of bounds index."
        }
      ]
    },
    "events": {
      "Approval(address,address,uint256)": {
        "details": "Emitted when `owner` enables `approved` to manage the `tokenId` token."
      },
      "ApprovalForAll(address,address,bool)": {
        "details": "Emitted when `owner` enables or disables (`approved`) `operator` to manage all of its assets."
      },
      "Transfer(address,address,uint256)": {
        "details": "Emitted when `tokenId` token is transferred from `from` to `to`."
      }
    },
    "kind": "dev",
    "methods": {
      "approve(address,uint256)": {
        "details": "See {IERC721-approve}."
      },
      "balanceOf(address)": {
        "details": "See {IERC721-balanceOf}."
      },
      "getApproved(uint256)": {
        "details": "See {IERC721-getApproved}."
      },
      "isApprovedForAll(address,address)": {
        "details": "See {IERC721-isApprovedForAll}."
      },
      "name()": {
        "details": "See {IERC721Metadata-name}."
      },
      "ownerOf(uint256)": {
        "details": "See {IERC721-ownerOf}."
      },
      "safeTransferFrom(address,address,uint256)": {
        "details": "See {IERC721-safeTransferFrom}."
      },
      "safeTransferFrom(address,address,uint256,bytes)": {
        "details": "See {IERC721-safeTransferFrom}."
      },
      "setApprovalForAll(address,bool)": {
        "details": "See {IERC721-setApprovalForAll}."
      },
      "supportsInterface(bytes4)": {
        "details": "See {IERC165-supportsInterface}."
      },
      "symbol()": {
        "details": "See {IERC721Metadata-symbol}."
      },
      "tokenByIndex(uint256)": {
        "details": "See {IERC721Enumerable-tokenByIndex}."
      },
      "tokenOfOwnerByIndex(address,uint256)": {
        "details": "See {IERC721Enumerable-tokenOfOwnerByIndex}."
      },
      "totalSupply()": {
        "details": "See {IERC721Enumerable-totalSupply}."
      },
      "transferFrom(address,address,uint256)": {
        "details": "See {IERC721-transferFrom}."
      }
    },
    "version": 1
  },
  "userdoc": {
    "kind": "user",
    "methods": {},
    "version": 1
  },
  "storageLayout": {
    "storage": [
      {
        "astId": 169,
        "contract": "contracts/YourCollectible.sol:YourCollectible",
        "label": "_name",
        "offset": 0,
        "slot": "0",
        "type": "t_string_storage"
      },
      {
        "astId": 171,
        "contract": "contracts/YourCollectible.sol:YourCollectible",
        "label": "_symbol",
        "offset": 0,
        "slot": "1",
        "type": "t_string_storage"
      },
      {
        "astId": 175,
        "contract": "contracts/YourCollectible.sol:YourCollectible",
        "label": "_owners",
        "offset": 0,
        "slot": "2",
        "type": "t_mapping(t_uint256,t_address)"
      },
      {
        "astId": 179,
        "contract": "contracts/YourCollectible.sol:YourCollectible",
        "label": "_balances",
        "offset": 0,
        "slot": "3",
        "type": "t_mapping(t_address,t_uint256)"
      },
      {
        "astId": 183,
        "contract": "contracts/YourCollectible.sol:YourCollectible",
        "label": "_tokenApprovals",
        "offset": 0,
        "slot": "4",
        "type": "t_mapping(t_uint256,t_address)"
      },
      {
        "astId": 189,
        "contract": "contracts/YourCollectible.sol:YourCollectible",
        "label": "_operatorApprovals",
        "offset": 0,
        "slot": "5",
        "type": "t_mapping(t_address,t_mapping(t_address,t_bool))"
      },
      {
        "astId": 1299,
        "contract": "contracts/YourCollectible.sol:YourCollectible",
        "label": "_ownedTokens",
        "offset": 0,
        "slot": "6",
        "type": "t_mapping(t_address,t_mapping(t_uint256,t_uint256))"
      },
      {
        "astId": 1303,
        "contract": "contracts/YourCollectible.sol:YourCollectible",
        "label": "_ownedTokensIndex",
        "offset": 0,
        "slot": "7",
        "type": "t_mapping(t_uint256,t_uint256)"
      },
      {
        "astId": 1306,
        "contract": "contracts/YourCollectible.sol:YourCollectible",
        "label": "_allTokens",
        "offset": 0,
        "slot": "8",
        "type": "t_array(t_uint256)dyn_storage"
      },
      {
        "astId": 1310,
        "contract": "contracts/YourCollectible.sol:YourCollectible",
        "label": "_allTokensIndex",
        "offset": 0,
        "slot": "9",
        "type": "t_mapping(t_uint256,t_uint256)"
      },
      {
        "astId": 3490,
        "contract": "contracts/YourCollectible.sol:YourCollectible",
        "label": "_currentTokenId",
        "offset": 0,
        "slot": "10",
        "type": "t_uint256"
      },
      {
        "astId": 3508,
        "contract": "contracts/YourCollectible.sol:YourCollectible",
        "label": "price",
        "offset": 0,
        "slot": "11",
        "type": "t_uint256"
      },
      {
        "astId": 3521,
        "contract": "contracts/YourCollectible.sol:YourCollectible",
        "label": "backgrounds",
        "offset": 0,
        "slot": "12",
        "type": "t_array(t_string_storage)dyn_storage"
      },
      {
        "astId": 3528,
        "contract": "contracts/YourCollectible.sol:YourCollectible",
        "label": "backgroundNames",
        "offset": 0,
        "slot": "13",
        "type": "t_array(t_string_storage)dyn_storage"
      },
      {
        "astId": 3553,
        "contract": "contracts/YourCollectible.sol:YourCollectible",
        "label": "palettes",
        "offset": 0,
        "slot": "14",
        "type": "t_array(t_array(t_string_storage)dyn_storage)dyn_storage"
      },
      {
        "astId": 3561,
        "contract": "contracts/YourCollectible.sol:YourCollectible",
        "label": "paletteNames",
        "offset": 0,
        "slot": "15",
        "type": "t_array(t_string_storage)dyn_storage"
      },
      {
        "astId": 3569,
        "contract": "contracts/YourCollectible.sol:YourCollectible",
        "label": "styleNames",
        "offset": 0,
        "slot": "16",
        "type": "t_array(t_string_storage)dyn_storage"
      },
      {
        "astId": 3580,
        "contract": "contracts/YourCollectible.sol:YourCollectible",
        "label": "featureNames",
        "offset": 0,
        "slot": "17",
        "type": "t_array(t_string_storage)dyn_storage"
      },
      {
        "astId": 3593,
        "contract": "contracts/YourCollectible.sol:YourCollectible",
        "label": "traits",
        "offset": 0,
        "slot": "18",
        "type": "t_mapping(t_uint256,t_struct(Traits)3588_storage)"
      }
    ],
    "types": {
      "t_address": {
        "encoding": "inplace",
        "label": "address",
        "numberOfBytes": "20"
      },
      "t_array(t_array(t_string_storage)dyn_storage)dyn_storage": {
        "base": "t_array(t_string_storage)dyn_storage",
        "encoding": "dynamic_array",
        "label": "string[][]",
        "numberOfBytes": "32"
      },
      "t_array(t_string_storage)dyn_storage": {
        "base": "t_string_storage",
        "encoding": "dynamic_array",
        "label": "string[]",
        "numberOfBytes": "32"
      },
      "t_array(t_uint256)dyn_storage": {
        "base": "t_uint256",
        "encoding": "dynamic_array",
        "label": "uint256[]",
        "numberOfBytes": "32"
      },
      "t_bool": {
        "encoding": "inplace",
        "label": "bool",
        "numberOfBytes": "1"
      },
      "t_enum(Feature)3573": {
        "encoding": "inplace",
        "label": "enum YourCollectible.Feature",
        "numberOfBytes": "1"
      },
      "t_mapping(t_address,t_bool)": {
        "encoding": "mapping",
        "key": "t_address",
        "label": "mapping(address => bool)",
        "numberOfBytes": "32",
        "value": "t_bool"
      },
      "t_mapping(t_address,t_mapping(t_address,t_bool))": {
        "encoding": "mapping",
        "key": "t_address",
        "label": "mapping(address => mapping(address => bool))",
        "numberOfBytes": "32",
        "value": "t_mapping(t_address,t_bool)"
      },
      "t_mapping(t_address,t_mapping(t_uint256,t_uint256))": {
        "encoding": "mapping",
        "key": "t_address",
        "label": "mapping(address => mapping(uint256 => uint256))",
        "numberOfBytes": "32",
        "value": "t_mapping(t_uint256,t_uint256)"
      },
      "t_mapping(t_address,t_uint256)": {
        "encoding": "mapping",
        "key": "t_address",
        "label": "mapping(address => uint256)",
        "numberOfBytes": "32",
        "value": "t_uint256"
      },
      "t_mapping(t_uint256,t_address)": {
        "encoding": "mapping",
        "key": "t_uint256",
        "label": "mapping(uint256 => address)",
        "numberOfBytes": "32",
        "value": "t_address"
      },
      "t_mapping(t_uint256,t_struct(Traits)3588_storage)": {
        "encoding": "mapping",
        "key": "t_uint256",
        "label": "mapping(uint256 => struct YourCollectible.Traits)",
        "numberOfBytes": "32",
        "value": "t_struct(Traits)3588_storage"
      },
      "t_mapping(t_uint256,t_uint256)": {
        "encoding": "mapping",
        "key": "t_uint256",
        "label": "mapping(uint256 => uint256)",
        "numberOfBytes": "32",
        "value": "t_uint256"
      },
      "t_string_storage": {
        "encoding": "bytes",
        "label": "string",
        "numberOfBytes": "32"
      },
      "t_struct(Traits)3588_storage": {
        "encoding": "inplace",
        "label": "struct YourCollectible.Traits",
        "members": [
          {
            "astId": 3582,
            "contract": "contracts/YourCollectible.sol:YourCollectible",
            "label": "palette",
            "offset": 0,
            "slot": "0",
            "type": "t_uint8"
          },
          {
            "astId": 3584,
            "contract": "contracts/YourCollectible.sol:YourCollectible",
            "label": "complexity",
            "offset": 1,
            "slot": "0",
            "type": "t_uint8"
          },
          {
            "astId": 3587,
            "contract": "contracts/YourCollectible.sol:YourCollectible",
            "label": "feature",
            "offset": 2,
            "slot": "0",
            "type": "t_enum(Feature)3573"
          }
        ],
        "numberOfBytes": "32"
      },
      "t_uint256": {
        "encoding": "inplace",
        "label": "uint256",
        "numberOfBytes": "32"
      },
      "t_uint8": {
        "encoding": "inplace",
        "label": "uint8",
        "numberOfBytes": "1"
      }
    }
  }
}